:1000000000800020F9030000E903000029530000EC
:1000100000000000000000000000000000000000E0
:10002000000000000000000000000000E9030000E4
:100030000000000000000000E9030000E9030000E8
:10004000E9030000E9030000E9030000E903000000
:10005000E9030000E9030000E9030000E9030000F0
:10006000E9030000E9030000E9030000E9030000E0
:10007000E9030000E9030000E9030000E9030000D0
:10008000E9030000E9030000E9030000E9030000C0
:10009000E9030000E9030000E9030000E9030000B0
:1000A000E9030000E9030000E9030000E9030000A0
:1000B000E9030000E9030000E9030000E903000090
:1000C0000448054B10B5834203D0044B002B00D0ED
:1000D000984710BDF8000020F80000200000000044
:1000E00006480749091A8B10C90FC91810B54910DD
:1000F00003D0044B002B00D0984710BDF80000201F
:10010000F80000200000000010B5074C2378002BF9
:1001100009D1FFF7D5FF054B002B02D0044800E0C2
:1001200000BF0123237010BD180100200000000053
:100130003CAA0000054B10B5002B03D0044905482C
:1001400000E000BFFFF7CCFF10BDC046000000007C
:100150001C0100203CAA0000402292029A1A9246FA
:100160007047C046174B002B00D1134B9D46FFF73D
:10017000F3FF00218B460F461348144A121A0AF067
:10018000F1F90E4B002B00D098470D4B002B00D0FF
:1001900098470020002104000D000D48002802D0DF
:1001A0000C4800E000BF0AF0E5F92000290000F04B
:1001B00051FA0AF0C3F9C046000008000000000030
:1001C000ED03000000800020180100208C100020AA
:1001D000000000000000000010B500F0BFF800F0C3
:1001E00011F800F053F800F06DF810BD10B500F0F4
:1001F0004CF800F09DF810BD10B5FFF7EDFFFFF7CC
:10020000F5FF10BD10B50021002000F003FD032212
:100210000021002000F07CFC0021002000F0D6FC32
:100220000121002000F0F6FC4F220121002000F007
:100230006FFC0121002000F0C9FC0221002000F029
:10024000E9FC2F220221002000F062FC02210020A4
:1002500000F0BCFC0321002000F0DCFC5F22032145
:10026000002000F055FC0321002000F0AFFC042129
:10027000002000F0CFFC2F220421002000F048FCD9
:100280000421002000F0A2FC10BD704710B5002230
:100290000021122000F074FC01220021132000F044
:1002A0006FFC02220021142000F06AFC03220021CE
:1002B000162000F065FC04220021192000F060FCEB
:1002C00010BD000010B5114A114C0121200000F0B2
:1002D000C5FA104A0221200000F0C0FA0E4A0F4C65
:1002E0000321200000F0BAFA0D4A0521200000F099
:1002F000B5FA0C4A0C4C0021200000F0AFFA0B4A72
:100300000121200000F0AAFA10BDC046C0A60000DE
:1003100000010440A8A6000090A6000000050440CB
:1003200078A6000060A600000008044048A600006F
:10033000704701BE7047000010B5002000F0A0FB20
:10034000011E05D1044A936A0C218B43936210BDB0
:100350000620FFF7EEFFF5E70000034070B5302000
:1003600000F052FD134C80252D062563124800F045
:10037000F7FA002000F084FBA36A0C229343A362E7
:10038000A36AC026B343A36200F096F8002000F0F1
:1003900063FCE36A1D43E562084800F0E1FAFFF7F9
:1003A000CBFFA36AB343A362302000F02DFD00F021
:1003B00083F870BD0000034000366E01006CDC0263
:1003C00010B5044800F052FD002801D0002010BDF7
:1003D0000148FCE7C00000200000020610B5FFF74E
:1003E0000BFFFFF7EDFF10BDFEE7704710B5FFF7FD
:1003F000FCFF10BD7047000010B5FFF7FBFF00F0D9
:100400004FF8174C1749C02220000AF0D7F8164BB6
:100410009C60BFF34F8F154A09E01468990050683B
:1004200064584450013391688B42F6D30C32104B20
:100430009A4201D20023F6E70E4909E00A689800C3
:1004400012180020106001334A689342F6D3083135
:10045000094B994201D20023F6E7FFF783FEC0461D
:10046000000000200000000000ED00E048AA0000AD
:1004700054AA000054AA00005CAA000070B5064B04
:100480009B6A9B0903251D400124AC4000F024FB1E
:1004900064080019E84070BD000003407047000088
:1004A00010B5034B034A9A6372B6FFF7F7FF10BD0E
:1004B000000003406588EDAC10B5FFF7DFFF0028B2
:1004C00014D00B4B1860441E0A49200009F0C0FEEE
:1004D0000130094B1870FA218900200009F0B8FE9C
:1004E0000130064B1860C003054B186010BDC046B4
:1004F000E800002040420F00E0000020E40000205F
:10050000DC0000200C4B0D4A9B5C002B0DD00A4BED
:100510000B4A9B5C002B0AD0074B7C3AFF3A9A5A55
:10052000084B9A4205D9022000E0002070470120C4
:10053000FCE70120FAE7C046C00300201E020000CD
:100540001F0200002723000000487047D405002048
:1005500010B5024801F0F2FF10BDC046480100206E
:1005600010B5024801F0BCFB10BDC0464801002098
:1005700010B55531C9B20248002203F0F5FB10BD99
:10058000C003002010B502F0DFFD024803F0EAF8D6
:1005900010BDC046040B002070B5064B9C6AA40930
:1005A00003231C400125A54000F096FA6D08401970
:1005B000E04070BD0000034010B582B00400FFF7BA
:1005C000A1FF012813D0022819D0002824D1144BF0
:1005D00008221A6418321A64FA239B001148124A3E
:1005E00000922200002102F04FFF02B010BD0C4B20
:1005F00008225A6418321A64FA239B00EEE7084B6B
:1006000008221A6418329A64084B8432985A0A21D4
:1006100009F01EFE83B2E1E7FA239B00DEE7C04645
:1006200000050440040B0020B9050000C0030020B1
:1006300010B50C00FFF766FF022800D010BD2000A7
:1006400004F0D4FBFAE710B501000020FFF7F0FF3B
:1006500010BD000070B582B0FFF7C0FE002800D0CA
:1006600001BE3149314800F087FB314B02221A604C
:10067000304809F0BEFD00284ED12F492F4D2800EB
:1006800002F0D6FE62B6280004F0ECFD2C4804F01F
:1006900057FE2C492C4800F06FFB254C8023DB05CE
:1006A00023602A492A4800F067FB80235B0123600E
:1006B000284E294B0193294B0093294B294A0021AD
:1006C000300001F077FD284B284A294C0195294933
:1006D00000913100200004F03DFE2749200003F086
:1006E0001DFA200003F0B2FD04F000FE200004F02B
:1006F000F5FF802000210001FFF75EFF1C4C200069
:1007000005F06CF8200003F063F904F007FE002107
:10071000200003F04AFAF1E7FFF73EFF064B1860AE
:10072000044809F073FDA8E78505000054A80000FF
:1007300000E100E03C01002040010020040B00200B
:1007400071050000610500004CA800005105000083
:1007500044A800004801002049050000ECA5000065
:1007600000FF0A4000000A4000A80000D8A60000D0
:10077000C0030020F0A70000C8A700000000000090
:100780000230800803D001300238FCD1C046C04698
:100790007047EFF3108072B6704780F3108870478F
:1007A00010B51400072900D901BE0F2C00D901BED5
:1007B000084BC3181B0A084A944663441B02186876
:1007C00089000F228A4090430F2222408A40024330
:1007D0001A6010BD0000FCBF00024000072900D9CC
:1007E00001BE012A04D901BE01238B400364704776
:1007F000002AF9D101238B404364F8E770B507293B
:1008000000D901BE0F2A00D901BE4C0064188568CA
:1008100007231E00A640B5431340A3402B4383602B
:10082000846901231D008D40AC43D20813408B40E6
:100830002343836170BD30B5082900D901BE032A66
:1008400000D901BE4900C46803231D008D40AC439C
:1008500013408B402343C36030BD000070B50500DA
:100860000E00140000284CD0002A4CD0072900D9D3
:1008700001BE2368012B00D901BE63680F2B00D98C
:1008800001BE237A0F2B00D901BEE368032B00D9E8
:1008900001BE2369012B00D901BE6369012B00D978
:1008A00001BE226831002800FFF798FF626831001E
:1008B0002800FFF7A3FF227A31002800FFF770FF1E
:1008C000E26831002800FFF7B6FF2369012B00D949
:1008D00001BEAA680D490A401B06802149040B404D
:1008E0001343AB606369012B00D901BEAA680849B4
:1008F0000A405B06802189040B401343AB60002053
:1009000070BD0448FCE70348FAE7C046FFFFFFFE5E
:10091000FFFFFFFD01005A00014B18687047C046F9
:10092000180F00200B4B1B6B002B01DB00207047C6
:10093000084A094BD3589B001C221A405101891ABE
:100940008B015B1ADB009B189801044B9C466044AA
:10095000EDE7C04600000340080F000000366E01BE
:10096000F0B5C64600B50400304B1B6B002B59DABE
:100970002F4B984213D02F4B984210D02E4B9842B9
:100980000DD02E4B98420AD02D4B984207D02D4BBC
:10099000984204D02C4B984201D02C4843E0FFF7FA
:1009A000C1FFA04201D100203DE0294BE0182949B8
:1009B00009F04EFC0400FFF7ECFE05001B4B002184
:1009C000254A9950254AA2181278D2B224481A50C2
:1009D000F12212019950234AA2181278D2B2224968
:1009E0005A50A4083220FFF7CBFE002C04D1280077
:1009F000FFF7D3FE002016E00C4B9846164FDB594C
:100A00000726B343621E324013434246D35132207D
:100A1000FFF7B6FE4346DB59B34326403343424615
:100A2000D351E4E7114880BCB846F0BD0000034054
:100A300000366E01003FAB010048E801005125027D
:100A4000005A620200639F02006CDC0201004A004F
:100A500000CA91FE40420F00080F000065F3FF0F2F
:100A60000C0F00004CF3FF0F180F000003004A00AA
:100A7000024B9B6A032018407047C04600000340A9
:100A800010B50400012801D9104810BDFFF7F0FF90
:100A9000844216D0002C03D10D4B1B6B002B07DBBF
:100AA000012C01D00B48F0E7FFF736FF00280AD0F1
:100AB00007498B6A03229343224013438B62002031
:100AC000E3E70020E1E70348DFE7C04601004A0012
:100AD0000000034003004A0070B50C4B9B6A9B0862
:100AE00003251D400124AC40FFF7C2FF002803D0BE
:100AF000012807D0002001E0FFF714FF6408201848
:100B0000E84070BDFFF708FFF8E7C046000003406B
:100B100010B500280FD10B290DD8FF2A0BD8134888
:100B2000803189000B58124C23401206120C1A43D4
:100B30000A50002002E0012801D00E4810BD032910
:100B400010D880235B029A420ED20848C031890037
:100B50000B58094C23401202084C224013430B50FF
:100B60000020EBE70348E9E70248E7E7000001401F
:100B7000FF00FFFF01004A00FF0000FF00FFFF0031
:100B80001F281AD8002901D10B2A0AD9012903D01C
:100B9000022904D00B480FE0032A02D9F8E7042AFF
:100BA0000DD88901FF230B403F210A4013434030F9
:100BB0008000054A8350002070470248FCE7014846
:100BC000FAE7C04601004A0000000140002801D1B8
:100BD0000B290AD9012803D0022804D00A4810E0C2
:100BE000032902D9F8E704290CD88001FF23034028
:100BF0003F220A401343054A1343054A1360136812
:100C0000002070470048FCE701004A0000FF008018
:100C100000000140002801D10B290AD9012803D086
:100C2000022804D00A4810E0032902D9F8E7042971
:100C30000CD88001FF2303403F220A401343802247
:100C4000D2051343034A1360002070470048FCE7B5
:100C500001004A0000000140022811D8012809D0F3
:100C600008498B6A302293430001024013438B6290
:100C700000207047034B1B6B002BF1DB0248F8E7A9
:100C80000248F6E70000034003004A0001004A0062
:100C900004291DD00AD8012911D0022904D10E4BF4
:100CA00000221A70002070470C48FCE7082904D184
:100CB000094B00221A700020F5E70848F3E7084BBB
:100CC0001B78002B06D1044B01221A700020EAE7A2
:100CD0000020E8E70148E6E7140F0020FF0042008B
:100CE000150F002070B5002811DB8308134DC033A9
:100CF0009B005C5903221040C000FC321600864065
:100D0000B44389010A40824022435A5170BD0F23E7
:100D10000340083B9B0806339B00094A9446634402
:100D20005C6803221040C000FC3215008540AC43D3
:100D300089010A40824022435A60E7E700E100E06F
:100D400000ED00E0094B9A68094B9A4204D010303C
:100D5000084B8000C0587047002905D01030044A65
:100D6000830098589950F6E701BEF7E700ED00E0E0
:100D7000000000200000000070B504000D000028F5
:100D800016D04368032B00D901BE0023E05E6168E2
:100D9000FFF7A8FF074B9A68074B9A4201D0002043
:100DA00070BD0023E05E2900FFF7CCFF0020F7E7CD
:100DB0000248F5E700ED00E00000002001005600C9
:100DC00010B5040006E0084B1868FFF7D9FC074B84
:100DD0009C46644480231B029C42F4D8044B186850
:100DE0006043FFF7CDFC10BDDC0000200080FFFF5A
:100DF000E400002010B5034B1B785843FFF7C0FCFC
:100E000010BDC046E0000020102803D9202812D8C9
:100E1000012200E0002209490B6B032083431343A6
:100E20000B630B6B10218B43002A00D0102213435D
:100E3000024A136370470222EDE7C04600001040EB
:100E4000064A074BD35A9BB2064A5360064A1369B7
:100E500004210B43136130BF7047C04600F0FF0F01
:100E6000520200000000034000ED00E030B5002811
:100E70003CD0C368002B3BD00368002B3AD00579E7
:100E80001E4BAA00D258002A28D0140000E01A00F5
:100E90005369002B07D0824205D0197E027E914211
:100EA000F5D81C00F3E7824226D02369002B08D036
:100EB000636943610461002B00D018616061012007
:100EC00015E0027E237E9A42F2D244610023036140
:100ED00020610A4BAD00E850012008E0074BAD004F
:100EE000E850002343610361012000E0002030BD91
:100EF0000020FCE70020FAE70020F8E72C0F002094
:100F000070B582B005000E00012800D901BE731E25
:100F1000DBB2012B08D9042E13D0082E16D001BE47
:100F20002C4BAA00D45802E02A4BAA00D458012E18
:100F30000AD0022E37D025006469002CFBD1002096
:100F400038E0244BAA00D458002004E0214BAA002A
:100F5000D458ECE76469002C13D01F4B98420ED094
:100F6000A3683342F6D1E3681A68684600925B686A
:100F70000193236831009847184B1C60EAE7012E63
:100F8000EED1012E01D002B070BD134B984204D0B7
:100F9000134BAD000022EA50F5E7114BAD000F4AAC
:100FA0001268EA50EFE70D4B1D68002DC7D02D6980
:100FB000C5E72D69002DE6D0AB683342F9D1EB6867
:100FC0001A68684600925B6801932B683100984765
:100FD000EFE7C0462C0F0020FF0042001C0F00204E
:100FE000200F002070B5184B5B68002B20D001212A
:100FF0000120FFF785FF041E1CD1FFF7CAFB050087
:10100000114B5B68002B03D004210120FFF778FF10
:10101000FFF716FF2800FFF7C0FB002C0AD10A4B90
:101020005B68002B0ED008210120FFF769FF09E063
:101030000024E2E7044B5B68002B03D0022101206F
:10104000FFF75EFF200070BD2C0F0020044B1A68D4
:1010500002210A431A601A6801390A431A6070476C
:1010600010E000E0044B1A6802218A431A601A68F3
:1010700001398A431A60704710E000E004490B68A8
:10108000042293438000024013430B607047C04624
:1010900010E000E070B503784168002B23D186236F
:1010A000FF33C35CC3225200845CA3421BD25A1C90
:1010B000D2B28625FF354255C5186535FF352E78E5
:1010C0003500944209D902338624FF340355801831
:1010D0006530FF3005782D023543B8235B00CD50D5
:1010E0000220FFF787FE70BD10B50378002B24D1D6
:1010F0004268A623DB001121D1507031FF315358D3
:10110000012423435350C0235B00D358DB07FAD498
:10111000C0235B00D1584B0A1F221340890B0A40A1
:10112000B024640001599B1ACB180351AC235B0017
:10113000C358002B01D01021984710BD70B54168ED
:10114000D0235B00CB58F022120513408022D2043A
:1011500093422AD0C2235B00C35C0F2B0AD8B8226B
:1011600052008A585D1CC22464000555C3187533AB
:10117000FF331A70C2235B00C35C0F2B17D8D02239
:1011800052008C58E40C823AFF3A224093420ED22D
:10119000B82252008A58120A5C1CC22149004454E9
:1011A000C0187530FF30027001E0FFF773FF70BDAB
:1011B00010B54268A423DB00D258074B1A4208D06E
:1011C00080214900AC235B00C358002B00D0984716
:1011D00010BD8021F6E7C0460000011010B503786D
:1011E000002B06D15933FF33C358002B01D02021E7
:1011F000984710BD70B5050044681E4BE358002B9E
:101200000FD01C4BE358DB0115D41A4BE358DB0419
:1012100019D4184BE358DB021ED4A423DB00164A72
:10122000E250164BE358002B04D0144BE358112224
:101230001A421AD170BDFFF781FFA423DB00802280
:101240005204E250E1E72800FFF7B2FFA423DB00DD
:1012500080225201E250DCE72800FFF7BFFFA42301
:10126000DB0080225203E250D7E72800FFF73CFF63
:10127000E0E7C0462C050000000001103C0500001E
:10128000F0B54468A023E358DBB2A2225200825C8E
:10129000002A2AD0002905D118221A4220D0082677
:1012A000002501E0102600252A00AB199A421ADA1F
:1012B00090235B00C7584621FF31435C9B00DF59F8
:1012C000131D9B001F51435C0133DBB24354415C4F
:1012D000A2235B00C35C994209D20132D2B2E4E797
:1012E00008260825E0E7012000E00020F0BD0020EE
:1012F000FCE770B54668A6235B00C55CEDB22A002A
:1013000010E04C21FF31435C14001834A400A459B0
:1013100006339B00C3185C60435C0133DBB243546B
:101320000132D2B22B0008339A4208DA4C23FF3341
:10133000C35CA5214900415C9942E2D808E0A6239C
:101340005B00C35C002B04D10822A6235B00C254BF
:1013500070BD0022F9E70000002827D0002927D01F
:101360004368C160A82200219950124A5A60B422F1
:101370001149995008320F21995014321E31FF3112
:10138000995004320D499950A121C9005A580C486E
:1013900002405A50E8201A581204120C09490A4314
:1013A0001A50C02208499950002070470220FCE7DB
:1013B0000220FAE7000FF1030F0200000A4041018A
:1013C000000408C002000F7E4100410070B544686F
:1013D000E4235B00C3589847837C012B2CD9BC23A2
:1013E000E158E822A558294B2B43A3506368E73AFC
:1013F000134363600125264A0A408223DB0113431D
:10140000817B002905D0C17A00292BD1017E0129D9
:101410001FD0BC22A350C4256259120C1204037EB3
:101420001B02417C49010B43134341221343635187
:10143000C023184AE25070BDBC23E158E822A358EB
:10144000154D2B40A3506368E53A93436360002534
:10145000D1E7002D02D0417B0029DAD08623DB01C1
:101460001343D6E7002D0CD0417B0029D1D0862331
:10147000DB011343C17B0029CBD08E23DB01134357
:10148000C7E7417C0129C4D1F1E7C04600001080C4
:10149000FF80FFFF41004100FFFFEF7FF0B583B009
:1014A000019308AC20CC267800282ED00A9C002C72
:1014B0002DD0446890277F000A9BC3512437019B9D
:1014C000C355A3235B00C654022917D0114B8E00CD
:1014D000F658C823E650E0231B012B400126334376
:1014E0009BB2013109041943AC23E150E56052B2CB
:1014F0004823FF33C254012003B0F0BDBC26A759D6
:101500008023DB003B43A351E0E70020F4E7002009
:10151000F2E7C0465CA8000070B54568DC242A5993
:101520000223FF3313432B510520FFF763FC2B5994
:10153000014A13402B5170BDFEFEFFFF70B5041E23
:1015400000D176E04568A122D200AB583A490B4061
:10155000AB50A023DB00394AEA504823FF33C35C79
:101560005BB2002B1ADBA423EA58354B1A421DD07C
:101570004822FF32835C5BB2013B5BB28354A12201
:10158000D200A95880235B010B43AB50C368E02213
:101590005200805800219847012070BD294AA9585F
:1015A00080239B010B43AB500120F6E74623FF331A
:1015B0000022C2540121FFF763FE002806D0A122B9
:1015C000D200A9588023DB020B43AB50A122D200EA
:1015D000A9581D4B0B43AB50A3235B00E35C002BCE
:1015E0001FD06B68022213436B60C423EB58482260
:1015F000FF32A25C002A19D08022120313438022FA
:1016000092021A43A4235B000021E1544821FF31D8
:10161000635C5BB2013B5BB26354C423EA500120BC
:10162000BBE76B68022293436B60DEE7074A134017
:10163000E5E70020B1E7C046FFEFFFFF98F0140098
:10164000012000000405000088E00000FFFFF7FF14
:1016500070B505004468E4235B00C35898474A23EB
:10166000FF330022EA54A023DB000D4AE25010337E
:10167000E0229200E250837C012B05D99932FF329F
:10168000A35880210B43A350A123DB00E158054A56
:101690000A43E250E25802210A43E25070BDC046BC
:1016A0007F0609040006090410B54368A320C000A2
:1016B0001A58164C22401A50A222D2009938FF38EC
:1016C000985000290FD1BC315A58114802405A5045
:1016D000A121C9005A580F4802405A50A022D200F6
:1016E0000D49995010BDBC201958094A114080225B
:1016F000D2010A431A50A120C0001958054A1140CE
:10170000802292000A431A50E8E7C0467FFEFFFF9E
:10171000FF80FFFFFFF9F6FB0006090470B5040027
:1017200045680021FFF7C0FF2000FFF7F5FEA1226A
:10173000D200AB5803490B40AB50A023DB00024A58
:10174000EA5070BD770EE9FF88F1160042685368D1
:1017500002218B435360704770B5002810D0456854
:10176000C4242A5980235B0313432B513220FFF7F3
:1017700041FB2A5980235B0213432B51002070BD8B
:101780000220FCE700280BD04268C423D15805484A
:101790000140D150D15804480140D1500020704739
:1017A0000220FCE7FFFFFEFFFFFFEFFF002810D045
:1017B0004368A422520000218154A121C9005A5833
:1017C000054802405A50A022D200044999500020F6
:1017D00070470220FCE7C046770FEBFF88F014004B
:1017E00070B50C00002831D04568052916D0184B7B
:1017F000A022D200AB500832A9580B43AB50154B76
:10180000A200D258CC23EA50052C1DD0C422A958DE
:101810008023DB020B43AB50002070BDFFF77CFE42
:10182000E5E7013CE4B20A20FFF7E4FA002C04D01B
:10183000A423EA58084B1A42F3D1A423EA58064BD2
:101840001A42E3D00F20E8E70A24EFE70220E4E79A
:10185000000102005CA8000007200000143070475F
:101860004368A4229958074A114206D1A022D20007
:101870009B589B0503D4002070470120FCE7012002
:10188000FAE7C04607200000F0B583B004004568C1
:10189000E4235B00C35898470190CA4BEE58B30548
:1018A0000ED5A4235B000022E254E368C132FF326C
:1018B000A05808219847A023DB0088229200EA5014
:1018C000330607D5A023DB008022EA50A4235B0067
:1018D0007F3AE254BC4BEB581B060DD5A223DB002C
:1018E000EB58DB0550D54A23FF330022E254A223F4
:1018F000DB00C0225200EA50330361D4730100D4EC
:10190000A9E0A023DB00EF583B0703D530233B4081
:10191000102B5ED0FB0700D490E020231A003A4041
:101920003B4200D08AE02933FF330021E154A1215A
:10193000C9006B58A54803406B50A023DB008021F1
:101940004901E950A423E958C9089D3B0B40013BDC
:101950002375EB6DA3610199897C012959D9617EB9
:1019600049064B0F19006375237ED806C00EA0757B
:101970009B06DB0FE3754A23FF33E35C002B55D056
:101980002000FFF7B6FC53E04A23FF330122E25464
:10199000EB6DDB01DB0D03339B08DBB24A32FF3218
:1019A000A354A35CDBB2412B03D913000A3AFF3ADC
:1019B000E25400234C22FF32A3540132A35496E791
:1019C0002000FFF796FCA023DB0080221203EA50E0
:1019D00094E73933FF33E35C002B9BD0A4235B00F7
:1019E0000022E254AC32A95880231B030B43AB50B6
:1019F000A122D200AB5876490B40AB50A023DB00AC
:101A0000744AEA50E368E0225200A0580321984744
:101A100080E771490B40A361A1E7130018339B00D5
:101A20005859931D9B00E318586001329142F4D835
:101A3000E368E0225200A05806219847A023DB006B
:101A4000664AEA504A23FF330022E254A223DB0015
:101A5000E0229200EA5073050AD5E368E0225200C2
:101A6000A05807219847A023DB008022D200EA502B
:101A7000F3030AD5E368E0225200A05807219847F3
:101A8000A023DB0080225202EA50F30410D5A122E9
:101A9000D200AB584D490B40AB50A023DB00802255
:101AA0005201EA50E368E0225200A0580121984711
:101AB000B30709D5E368E0225200A0580B219847EC
:101AC000A023DB000222EA50730337D4B30447D4C7
:101AD000F30200D5A8E0C0231B021E4200D0C8E0DC
:101AE000F30513D5A4235B000022E254E368C1325E
:101AF000FF32A05805219847A122D200AB5838499F
:101B00000B40AB50A023DB00364AEA50B60313D596
:101B1000A4235B000022E254A122D200AB5830493A
:101B20000B40AB50A023DB002E4AEA50E368E022D2
:101B30005200A0580421984703B0F0BD00212000B6
:101B4000FFF79EFB002805D1A122D200AB58264901
:101B50000B40AB50A023DB008022D202EA50B5E755
:101B6000A4235B000022E2542000FFF779FE482303
:101B7000FF33E35C5BB2002B05DB002815D1C423E7
:101B8000EB581B0311D4A122D200AB5810490B40D3
:101B9000AB50E368E0225200A05802219847A023EE
:101BA000DB0080229201EA5092E74823FF33E35C96
:101BB000002B1BD14822FF32A35C5BB2013B5BB21E
:101BC000A354ECE70C0500001C050000FFEFFFFF2D
:101BD000771FFFFF88E00000EF7FFFFF7F00080412
:101BE000FFFEFDFF00010200FFFFFBFFA023DB0063
:101BF00080225203EA500520FFF7FCF8C423EB587B
:101C00001B0307D5A122D200A95880235B030B43F5
:101C1000AB50CFE70520FFF7EDF8C422A958802389
:101C20001B030B43AB50C5E72000FFF719FE00284C
:101C30000AD14823FF33FF22E254254AA9588023C2
:101C40009B010B43AB5046E70520FFF7D3F8C422B6
:101C5000A95880231B030B43AB50A122D200AB58E1
:101C60001C490B40AB50A023DB0080225203EA50FA
:101C700031E7A023DB00D0221202EA50A122D200D9
:101C8000A95880235B010B43AB500A20FFF7B2F841
:101C9000A423EA58104B1A4203D10D4B8022520163
:101CA000EA50330406D4E368E0225200A058002131
:101CB000984715E7DC27EA5980235B001343EB5173
:101CC0000520FFF797F8EB59044A1340EB51EAE778
:101CD00004050000FFFFEFFF07200000FFFEFFFFED
:101CE00070B5050044680D4BE358002B0AD10C4B2E
:101CF000E3580C4BE358002B07D10B4BE358002B58
:101D000007D170BDFFF7C0FDF1E72800FFF772FAB9
:101D1000F3E72800FFF76EFAF3E7C0460C05000072
:101D20001C0500002C0500003C050000BFF34F8F90
:101D3000034B044ADA60BFF34F8FC046FDE7C0464D
:101D400000ED00E00400FA057047000070B50D00DA
:101D50004468E4235B00C3589847C022D200A358CC
:101D600020490B4010210B43A350002D05D0417E8C
:101D70000378032B34D0002501E000250321C02087
:101D8000C0002258184B89005B185B5D59025B014B
:101D90000B4313432350AA239B00E25813490A40E4
:101DA000E250E158124A0A43E2500A20FFF722F8B3
:101DB000AE239B007022E250B0229200A358602113
:101DC0000B43A350AD239B00E258A0235B011A42B2
:101DD00005D0AF229200A35840390B43A35070BDE9
:101DE0000125CCE70FF0FFFF78A80000E8A3FFFF74
:101DF0000514000070B514004568160001291BD0B9
:101E00000021184A13191B7B5B01601C1218127BFE
:101E1000520213430B43C022D200AA58FF210901EA
:101E20000A4093420BD1AD239B00EB585A0513D5C2
:101E30000234E6B2300070BD88214900E1E7C022DB
:101E4000D200A95808480140A950A9580B43AB50EB
:101E50003220FEF7CFFFE6E7DB04EBD50134E6B234
:101E6000E8E7C04678A800000FF0FFFF70B5050056
:101E70004368074A8C18A4001B195A680826324385
:101E80005A600A20FEF7B6FF6B681B195E6070BDD2
:101E90001A02000010B544680D4BCB189B00E318E4
:101EA0005B689B0600D510BD094B9C4661448900C8
:101EB0006418F33BFF3B63600A20FEF79BFF20237F
:101EC00063602820FEF796FFA0236360EBE7C0461F
:101ED0001A02000010B5002826D04368C022D200A4
:101EE0009958124C214099509C58E02109032143F4
:101EF0009950C121C9005A580824A2435A50AA2116
:101F000089005A580A4C22405A50C12292009958CE
:101F10000124A143995099580F342143995000212D
:101F2000FFF7B8FF002010BD0220FCE7FFFFF1CF54
:101F3000FEFBFFFF70B5051E3AD04468C026F600D0
:101F4000A3595B005B08A351C123DB00E2580821C1
:101F50008A43E250E25807390A43E2506420FEF710
:101F600049FF00212800FFF795FF3220FEF742FFCE
:101F7000A3590A221343A3510E4AA15880231B02DE
:101F80000B43A350A921890063580B4803400B4A17
:101F9000134363500431635803401A436250A8222C
:101FA0009200A158C0239B030B43A350002070BD97
:101FB0000220FCE704060000FEFBFFFF10400000CB
:101FC00010B5002812D04468C022D200A158802346
:101FD0001B060B43A3500021FFF748FFC122D2008C
:101FE000A35808218B43A350002010BD0220FCE71A
:101FF000002817D04368C121C9005A5808208243DD
:102000005A50C022D200995849004908995099580D
:10201000023001439950985803490840F0210904BF
:10202000014399507047C046FFFFFFBF7047000053
:1020300070B50D00002810D044680021FFF716FF8E
:10204000C023DB00E358002D08D1A022D2031343A4
:10205000044A1340C022D200A35070BDA022120433
:102060001343F5E7FFFFFFBF00280DD04068C023F2
:10207000DB00C358002908D1074A1A4080235B03BC
:102080001343C022D20083507047044A1A40802371
:102090009B031343F5E7C046FFFFBFFFFFFF7FFF32
:1020A000F0B583B005004768E4235B00C358984748
:1020B0000400067FC28A01AB1A80837A002B04D009
:1020C000A423FB5806221A4212D1A37A002B37D040
:1020D00001AB9B5D012B0ED801AB9B5D012B12D98F
:1020E000637F01AA0021D15401AB188803B0F0BD71
:1020F00001AB1888FAE7012231002800FFF77AFEC9
:1021000001AB9855E8E7002231002800FFF772FE86
:1021100001AB9855E4E70134E4B2012CE4D8002285
:1021200021002800FFF766FE01AB18550028F2D009
:10213000012221002800FFF75DFE01AB1855EAE7F8
:102140000024EAE7002808D0002907D14168C0220E
:10215000D2008B58042083438B5070474168C022C3
:10216000D2008B58042003438B50F6E770470000E1
:1021700010B544680378002B01D10C4B1C600B4B4D
:102180001A688823DB00D3585B0500D510BD0122F7
:10219000002100F0C9FCC8231B019842F6D3044A71
:1021A000A35810210B43A350F0E7C046380F00207E
:1021B0001C060000F8B505000E001400002800D130
:1021C000DBE0002A00D1DAE0002B00D1D9E0069A4A
:1021D000002A00D1D7E0079A002A00D1D5E0297063
:1021E00044608360E2235B00069AC2500433079A7E
:1021F000C250226880231B0613432360C022D200F2
:10220000A3585B005B08A350C123DB00E2580827FA
:10221000BA43E250E25801210A43E2506420FEF73B
:10222000E9FD5B4AA35880210B43A350D222D20080
:10223000A3585B005B08A350D423DB00554AE2504F
:10224000D621C900544B6350D823DB00534AE250D7
:10225000103390221201E2503602514BF3181A78D3
:10226000504B9C46664433789B1862584E48024057
:102270005B081B02134363503220FEF7BBFD4B4A41
:10228000A3583C218B433B43A350494B1B782B78ED
:10229000002B1BD02368102213432360454AA35808
:1022A0000C210B43A3500432A3580B390B43A3500A
:1022B000414AA35880318B43A3500021280000F0ED
:1022C00093FA2800FFF754FF0020F8BDFB26F60024
:1022D000A3595B005B08A3513220FEF78BFDA35985
:1022E00001221343A3518523DB000F32E250E25851
:1022F00002210A43E2502D4AA3583E310B43A3501A
:102300000120FEF75DFDFEF744FA06002B4B042288
:10231000E250043BE3585B0522D42B69002B03D029
:1023200000220021280098470120FEF749FD244A99
:10233000A35824490B40A350234AA35804218B439C
:10234000A350FB22D200A15880231B060B43A350AD
:102350003000FEF722FA95239B000122EA5499E708
:102360002B69002B03D00122002128009847164A30
:10237000A35804210B43A350EAE70220A5E702205B
:10238000A3E70220A1E702209FE702209DE7C046C5
:10239000C82000003636141C5F6B3D00143D000061
:1023A00030F4FF0F46F4FF0FFF00FFFF640800004A
:1023B00000F4FF0F2C060000C808000044040000D1
:1023C0001C060000FFFFFEFF4C040000F0B5C646EF
:1023D00000B584B0041E0291039259D0E4235B003F
:1023E000C358984707006568067A002E52D0437A92
:1023F000DAB29046002B3DD0AE208000102129504B
:10240000B0239B00EA580A43EA50AA26B600A9590D
:10241000234A1140234A0A43AA5160212950EA580D
:102420000A43EA50FE8A2000FFF73AFE80B2864255
:1024300007D0AF229200AB5820210B43AB50464649
:1024400029E03E7D002E26D198256D00615D039B1D
:10245000029A200000F04FFB03003022FF32A25C02
:10246000615D1148019002200090200000F000FA08
:10247000464610E0C022D200AB580C490B40223136
:10248000FF310B43AB5000212000FFF75FFC02E05F
:10249000002600E00126300004B080BCB846F0BD44
:1024A000FEFBFFFF06180000491D0000EFFEFFFFC6
:1024B00070B582B0041E39D04568E4235B00C35870
:1024C00098470300007A00282ED0B026B600AA59FB
:1024D0007C218A43AA51AE229200A9505A7AD6B2E0
:1024E000002A10D01A7E002A0DD1187D00281BD199
:1024F00098235B00E15C002301930093200000F02F
:10250000B7F9300010E05B7ADAB2002B10D1A921C4
:1025100089006B58074C2340074A13436B50043122
:102520006B5823401A436A5002B070BD0020FBE78D
:102530001000F9E7FEFBFFFF1040000070B505003A
:102540004468B1239B00E6583133FF33E358002B36
:1025500004D0FD239B00E3589B075AD4002E39D0AA
:10256000730708D5B0218900635804229343635050
:10257000AE239B00E250330708D5B0218900635891
:10258000082293436350AE239B00E250F30608D524
:10259000B02189006358102293436350AE239B00FF
:1025A000E250B30608D5B021890063582022934336
:1025B0006350AE239B00E250730608D5B02189001A
:1025C0006358402293436350AE239B00E250AE23F6
:1025D0009B00E6508A23DB00E358002B13D0204BEE
:1025E000E258E250043BE3585B051ED59522920069
:1025F000AB5C02210B43AB542B69002B03D00122AF
:10260000002128009847D5239B00E3589B0723D43B
:1026100070BD00F075FDFC218900635802229343D0
:102620006350FA239B00E25098E795239B00012218
:10263000EA540C4BE358DB0307D42B69002BE2D0A0
:102640000022002128009847DDE7064AA3580649E2
:102650000B40A350FFF76AFB280000F076FAD7E79B
:10266000440400001C060000FFFFFEFF002808D005
:10267000002A08D0DE235B00C2500433C150002082
:1026800070470220FCE70220FAE70000F8B5CE46CA
:10269000474680B5041E3DD0FEF77BF8814663684F
:1026A000C122D2009446995898229200A150C02786
:1026B000FF00D9590432A150C42699590432A150BF
:1026C000164D59590432A150E0215A5890469C2287
:1026D00092004046A05062469A580824A243073C04
:1026E000224360461A50DA590D4802402243DA511B
:1026F0009C598022520322439A515A59094C224034
:102700005A515A588024A243403C22435A504846CA
:10271000FEF743F8C0BCB946B046F8BD0406000059
:10272000FBFFFF7FFFC7FFFF70B5041E26D0FEF73B
:1027300030F80500636898229200A158C122D200A7
:10274000995099229200A158C022D20099509A2201
:102750009200A158A53AFF3A9950A932FF32A158E8
:10276000074A99509C229200A158913AFF3A9950F9
:102770000A20FEF73FFB2800FEF70FF870BDC046A9
:102780000406000070B515004468D023DB00E25059
:102790000A20FEF72FFB0223D2229200A350083218
:1027A000A258134211D0002D0FDBC1239B00E25829
:1027B000520803231340D022D200A258120405D598
:1027C0000122012B04D0022B0BD070BD0022F8E7B0
:1027D000002AF8D1D3229200A35802210B43A35020
:1027E000F3E7002AF1D0F5E730B500281CD0022924
:1027F0001CD044683023FF330122C254002201332D
:10280000C254D023DB000A4DE55043182533FF3373
:102810001A7094314900FA23DB000B5297235B00B6
:102820002132C254002030BD0220FCE70220FAE72A
:102830000002008010B50300100294314900C95A0B
:1028400089B207F005FD032803D9FE2802D9FE202E
:1028500000E00420C0B210BD943149000B5A53432C
:1028600097225200805C5843400A80B270470000B3
:10287000F0B5CE46474680B583B004000F00019204
:102880001A000AAB1E78456800929146FDF781FF59
:1028900080463B004C339B00E3180B995960E419C8
:1028A0002534FF342378002B04D080231B03009AA7
:1028B0001A4391460B9B002B36D0C1229200AB5895
:1028C00006218B4371000B43AB50019B5B04C0227C
:1028D000D20213404A461343802292001343D0246D
:1028E000E4002B510A20FEF785FA0221D2239B0037
:1028F000E950D4229200AB580B43AB502B591B0428
:1029000007D50123012E06D0022E1AD1002B18D094
:1029100003E00023F6E7002BF6D1D3229200AB5858
:1029200002210B43AB500CE0D023DB00094AEA50F4
:10293000D42189006B58022293436B50D2239B0011
:10294000EA504046FDF729FF03B0C0BCB946B04687
:10295000F0BDC04600020080F8B5DE4657464E4640
:102960004546E0B50500894614001F0046689A46B2
:10297000FDF70FFF80464B46EB182533FF331B78DE
:10298000002B03D080231B033B439A46D027FF0034
:10299000F3599B466404C023DB021C4053461C438E
:1029A00080239B002343F3510A20FEF723FAF359B7
:1029B0001B040FD401245A4649462800FFF7E2FEC3
:1029C0004046FDF7EAFE2000F0BCBB46B246A946F1
:1029D000A046F8BD0024EEE7F0B5D6464F46464681
:1029E000C0B582B005000E001700446800230193B3
:1029F000FDF7CFFE8246C1229200A35811218B43DE
:102A0000A3500520FEF7F6F9D023DB00E3589846E3
:102A1000A023DB0080221205E250AB192533FF33DF
:102A20001B78002B0FD07A04C023DB021A40224B04
:102A30001343D022D200A350E0225200A358012118
:102A40000B43A3500DE07B04C022D202134080222E
:102A500092001343D022D200A350EDE7019B013333
:102A60000193019BC72B04D8A023DB00E3581B0173
:102A7000F4D50220FEF7BEF9E0235B00E3581B0CFF
:102A8000DBB29946A023DB0080221205E2504246C9
:102A900031002800FFF776FEC1229200A3581021D2
:102AA0000B43A3505046FDF778FE484602B0E0BC09
:102AB000BA46B146A846F0BD0002080070B5050050
:102AC0000C0043182533FF331B78002B04D19434BA
:102AD0006400605B80B270BD0222FFF77DFF011EC3
:102AE000F5D09620C00207F0B3FB80B223009433E8
:102AF0005B005853EBE770B505000E00140053431C
:102B00001800642107F02EFC20180BD440009723F6
:102B10005B00E95C07F09CFB82B231002800FFF704
:102B200089FE70BD0020F1E770B504000D001600AD
:102B3000FFF7C4FF320029002000FFF74DFF02001D
:102B400029002000FFF788FE70BD10B54368D5222C
:102B500092009A58920714D5D424A4001A5902213D
:102B60008A431A51D22292009950D022D2009B5807
:102B70001B0407D401399A235B00C358002B00D0F3
:102B8000984710BD0021F6E74168034A8858802322
:102B90005B0003438B5070476808000043680029BE
:102BA00008D18C2292009B5820201840431E984147
:102BB000C0B270478E2292009B5820201840431EBE
:102BC0009841C0B2F5E7000070B50D004468FFF70A
:102BD000E5FF002814D1002D14D18C239B00E1586F
:102BE0000F4A0A43E250E25802210A43E250E258F7
:102BF0008A43E25090229200A158094B0B43A35004
:102C0000002070BD8E239B00E158054A0A43E25024
:102C1000E25802210A43E250E2588A43E250E9E7CF
:102C2000200C200070B50D004468FFF7B7FF0028A6
:102C300001D1002070BD164AA35816490B40A3507D
:102C400090229200A35814490B40A3500A20FEF78B
:102C5000D1F8002D0DD18C239B00E2580F490A407A
:102C6000E250E25802210A43E250E2588A43E2501D
:102C7000DFE78E239B00E25809490A40E250E25800
:102C800002210A43E250E2588A43E250D1E7C046AB
:102C900068080000FFFEFFFFDFF3DFFFDFFBDFFF61
:102CA000DFF7DFFF002070470020704710B5436852
:102CB00009481A58094C22401A50002905D00849E1
:102CC0005858084A02435A5010BD05495A580648F8
:102CD00002405A50F8E7C046C8200000FFFFFFBF7F
:102CE000CC20000000018000FFFE7FFF4368002928
:102CF00006D0064958588022520402435A50704761
:102D000002495A58024802405A50F8E7CC200000C5
:102D1000FFFFFFFEF8B506000F0045680F4C2B596A
:102D2000032213432B511420FEF764F82B59082279
:102D300013432B511420FEF75DF82A598023DB053D
:102D400013432B51002F04D08823FF330122F25468
:102D5000F8BDC4235B000122F254F9E7C82000004B
:102D600070B5456800291ED08823FF330022C25465
:102D70000F4C2B590F4A13402B511420FEF73AF8F1
:102D80002B59082293432B511420FEF733F82B596B
:102D9000032293432B511420FEF72CF82B59064A9B
:102DA00013402B5170BDC4235B000022C254DFE7E7
:102DB000C8200000FFFFFFBFFFFFFFC74168F222EE
:102DC000D2008B587C2083436D3803438B5070476F
:102DD0004168F222D2008B58012083438B50704708
:102DE0004368002903D0022A02D0042A07D0704782
:102DF000064958588022520502435A50F7E70349C2
:102E000058588022120502435A50F0E7C8200000AB
:102E10004368002903D0022A02D0042A06D0704752
:102E200005495A58054802405A50F8E702495A588D
:102E3000034802405A50F2E7C8200000FFFFFFEFAE
:102E4000FFFFFFF7F8B5CE46474680B58846140029
:102E50004568DA23DB00EE18FDF79BFC8146072C62
:102E600010D8042C1BD2032C21D8D423DB00EE185D
:102E7000E400E3B2FF2534681F00DC402C40A0458D
:102E800029D848E02300083BDBB2022B0FD8D82317
:102E9000DB00EE18083CE300DBB2FF25EBE7D623AE
:102EA000DB00EE18043CE300DBB2FF25E3E7630040
:102EB000E318DBB2243BDBB20725DCE714343368CC
:102EC0002A00BA40934322002A40BA401343336099
:102ED0000A20FDF78FFF43461B1B142BEED83268E8
:102EE000BD40AA434346BB402B4013433360484692
:102EF000FDF753FCC0BCB946B046F8BD143C33687E
:102F00002A00BA40934322002A40BA401343336058
:102F10000A20FDF76FFF4346E31A142BEED8DEE7D5
:102F2000F0B5D6464F464646C0B582B006000D0005
:102F3000924601934468E2235B00C3581B68DF7824
:102F400001377F083A1C202F00D92022D2B29046A8
:102F50005B78022B16D0D0235B005246F25024330C
:102F6000F3581B6898786843642107F0FBF982B234
:102F7000521992B2374B9A420AD8374B9A4208D824
:102F8000364A06E0012201993000FFF741FFE2E7EF
:102F9000304A334D635999465000801840006421EF
:102FA00007F0E0F902234A469A4362510004000CFC
:102FB000C8380A2107F04CF981B2C72900D9C721C6
:102FC000C9B203223000FFF73DFF264AA35801256E
:102FD0002B43A350A3585B005B08A3500A20FDF7C6
:102FE00009FFE1239B00E258AA43E250E3581E4A3E
:102FF0001340002F24D0012F20D04246013A520125
:10300000F82189000A401A43184B1343E122920029
:10301000A3500221FA239B00E1506C32A3580B43CA
:10302000A350E2235B00F3581B685B78022B0AD0A5
:1030300002B0E0BCBA46B146A846F0BD2022E2E7A5
:1030400010221343E2E7012201993000FFF7C8FE86
:10305000EEE7C046307500006F17000070170000E3
:103060002C060000D407000001F8FFFF0504000053
:10307000F8B505000F004468FDF78BFB0600E2235E
:103080005B00EB581B685B78022B2CD0194BE25885
:1030900001218A43E250E158802212060A43E2509D
:1030A000E1229200A35814490B40A350FC2189004F
:1030B0006358022293436350FA239B00E2500F4966
:1030C000635813436350743163581B021B0AA022D8
:1030D000920513436350D0235B000022EA50300076
:1030E000FDF75BFBF8BD012239002800FFF790FED9
:1030F000CCE7C046D407000008F8FFFF2C0600000C
:1031000010B54368FC24A4001A5902218A431A51BD
:10311000FA2292009950D0235B00C358002B01D0B3
:103120000139984710BD000080235B02984200D30C
:1031300001BE044A136C1B0C1B040004000C034367
:103140001364704700000340024B01225A645B6C19
:103150007047C0460000034082B0002301930093F3
:1031600000290CD008180138019005E0019B5B1A7A
:103170000193009B01330093019B8B42F6D2009890
:1031800002B0704770B504000D00FDF702FB002C83
:1031900002D023682B432360FDF7FFFA70BD70B5A2
:1031A00004000D00FDF7F5FA002C02D02368AB43B4
:1031B0002360FDF7F2FA70BD70B506000D00FDF753
:1031C000E8FA002E15D03368002B14D032680024A2
:1031D0001F2C11D81300E340DB0702D40134E4B202
:1031E000F6E7002D08D033680122A24093433360F4
:1031F00002E0202400E02024FDF7CFFA200070BD7B
:1032000070B504000D00FDF7C4FA002C07D01F2D87
:1032100007D82368EB40DB0708D4002402E0002431
:1032200000E00024FDF7B9FA200070BD0124F9E7A1
:10323000884202D2081A80B27047081A80235B02C3
:103240009C466044F7E7000030B50500144B9942F6
:1032500024D0002203E03F2411E00132D2B2072A39
:103260001AD8AB18FF208000844663441B78002BDB
:10327000F3D0541CE4B2E400E4B23F2CEBD8D0000D
:10328000C0B2A042E9D2431C1B01EB18DB888B4281
:1032900003D00130C0B2F4E7FF2030BDFF20FCE7CF
:1032A000FFFF000010B582B00400FDF7DBFE284BE5
:1032B00000229A6023689800C0184000FA21890013
:1032C00006F0C6FF013880235B04984200D301BE9C
:1032D0000002000A1E4B58600120FDF7CFFE1D4B77
:1032E000DB6B1B041B0C01931A4BDB6B1B041B0CCD
:1032F000019A9A42F8D0174BDB6B1B041B0C01930D
:10330000FDF7A4FE124A136802218B431360104B91
:103310001B68DB03FBD50F4BDB6B1B041B0C009303
:10332000019A009B9A4204D9009A80235B021343BE
:1033300000930098019BC01A80B26081322106F090
:1033400087FF054BE054FDF78DFE02B010BDC0466F
:1033500010E000E0000003400C04000010B5040081
:103360000A4BDA6C01218A43DA64094A9A63DA6CFF
:103370000A43DA64D96A802212060A43DA62FFF746
:10338000E3FE2000FFF78EFF10BDC04600000340A3
:103390006588EDAC024AD36C01210B43D3647047BE
:1033A00000000340024AD36C01218B43D364704771
:1033B0000000034070B54B1C1B01C3180122524290
:1033C000DA80114A835C013BDBB283540F4A835C91
:1033D000013BDBB28354CB08C318FF24A400A446EE
:1033E00063441C7807250D400121A9408C431C70C3
:1033F000835C002B03D1064BC35C002B00D070BD57
:10340000FFF7D0FFFBE7C0460404000005040000FE
:1034100006040000014BD86B80B2704700000340E7
:1034200070B505000C000800FFF77EFE2C8170BD12
:1034300010B50C00002306E001331A0182180121A7
:103440004942D180DBB23E2BF6D9002308E0C218F6
:10345000FF2189008C466244002111700133DBB2E8
:10346000072BF4D90023064A8354064A8354236861
:10347000036062688123DB00C250FFF76FFF10BD5D
:103480000404000005040000F0B5DE4657464E4631
:103490004546E0B583B006000191170098460C231D
:1034A000994681445D4B9A4200D1B4E04346002BDB
:1034B00008D10024200003B0F0BCBB46B246A946A8
:1034C000A046F0BDFDF765F98346FF239C46082121
:1034D0005DE0CC00E4B2013C64B23E2C05DD3E244C
:1034E00003E0E3B29C46013C64B2C3005BB2A3427A
:1034F0004BDC25014D446A89484B9A42F1D06B89D7
:10350000BB42F0D1E3B29C464549735C013BDBB260
:1035100073544449735C013BDBB273546346FF2B25
:1035200077D01C014C44434623810C9B6360678128
:10353000019BE3606346DB08F318FF22920091468B
:103540004B441978072062461040012282400A430A
:10355000D2B21A7070894346584305300A2106F0EA
:1035600077FE2060304BF35C002B20D02C4AB35CFC
:103570000133DBB2B3542B4AB35C0133DBB2B35437
:1035800001245846FDF709F994E70139C9B2002929
:10359000C4D0481E3318FF229200924653441B7831
:1035A000002B96D1C2B2D200D3B29C46EDE73000D8
:1035B000FFF730FF01001B4BF35C002B18D0B088E5
:1035C00080B2FFF735FE23681B1823602368174A73
:1035D000B25C9B18F2889A42C8D923689BB2F380E8
:1035E000B388F188C91889B23000FFF719FFBDE729
:1035F000B08023680E4A934200D913009BB2F38037
:10360000591889B23000FFF70BFF3000FFF7C2FEF8
:10361000ACE70024B5E700244CE7C046FFFF0000FC
:103620000404000005040000060400000C0400006F
:10363000C0FF000000B583B01300002200920A0012
:103640000021FFF721FF03B000BD70B504000E009C
:10365000FDF79FF8050031002000FFF7F5FD0100A0
:10366000FF2803D12800FDF798F870BD2000FFF770
:10367000A1FEF7E7F0B5D6464F464646C0B507006F
:1036800088469146914233D21C4B9A4230D0FDF786
:1036900080F88246002515E03F2623E00134E4B29D
:1036A000B4420DD2631C1B01FB18DB889AB2434560
:1036B000F4D39145F2D321003800FFF77BFEEDE70C
:1036C0000135EDB2072D10D87B19FF2292009446E8
:1036D00063441B78002BF3D06E1CF6B2F600F6B2F2
:1036E0003F2ED9D8EC00E4B2DAE75046FDF755F8A2
:1036F000E0BCBA46B146A846F0BDC046FFFF000098
:1037000010B5FFF7A1FDFF2801D1002010BD012059
:10371000FCE770B506000C00150001E00134A4B20E
:10372000AC4207D821003000FFF78EFDFF28F5D00E
:10373000012000E0002070BD10B5084BC35C002BD9
:1037400006D0074B1B6C1B041B0C02899A4200D14C
:1037500010BD3220FDF74EFBFAE7C046050400001D
:1037600000000340F0B5DE4657464E464546E0B5FC
:1037700083B00500624B0122C25463E03F2753E04F
:1037800000221A6014E00134E4B2BC423AD22301B0
:1037900043445A8990B25B498A42F4D019685A4A24
:1037A000AA5C4A449142EBD91A684946521A1A60F7
:1037B0001A68002AE7D1013A5A81E208AA18FF21C3
:1037C00089008C466244934611780191072121407B
:1037D0008A460121524691400A00019991435A4676
:1037E00011704A496A5C013AD2B26A5448496A5C2B
:1037F000013AD2B26A545A68002AC4D05A68D968C9
:103800009047C0E70136F6B2072E10D8AB19FF2259
:103810009200944663441B78002BF3D0771CFFB2D0
:10382000FF00FFB23F2FA9D8F400E4B2ADE7384B58
:10383000EB5C002B3CD1374C0020334BEB5C1B186E
:10384000A34242D92800FFF7E5FD0400A88880B212
:103850002100FFF7EDFC8146AC800C239846A8447C
:103860000026D1E73F2020E00133DBB283420AD2B9
:103870001A0142445789234EB742F5D01668A64232
:10388000F2D21468F0E70131C9B2072913D86B18D6
:10389000FF229200944663441B78002BF3D0481C0F
:1038A000C0B2C000C0B23F28DCD8CB00DBB2DDE73D
:1038B000184C0021E9E7AE88B6B22800FFF7AAFD50
:1038C00001003000FFF7B4FCB7E7A4B2EC80A98890
:1038D000091989B22800FFF7A3FD094B0022EA5419
:1038E0000B4BEB5C002B06D003B0F0BCBB46B246E2
:1038F000A946A046F0BD2800FFF754FDF4E7C046F6
:1039000006040000FFFF00000C0400000404000097
:1039100005040000C0FF0000042902D0032906D0DE
:1039200070470378054AD25C9523C254F6E70378C2
:103930009522815C014AD154F2E7C046440F002031
:1039400010B582B00C008B239B00CB5C002B01D008
:1039500002B010BD009300221B21200002F0DEF90E
:103960000028F5D0D323DB00E0582378002B08D0C3
:103970008422D200044B009364232100FFF784FDCE
:10398000E6E7C8229200F5E74139000010B582B0A1
:103990000C00094B01221A70002002F0ABFAFA2346
:1039A000D322D200A058054A00925B000A222100CF
:1039B000FFF76AFD02B010BD580F00208D390000DE
:1039C00010B5D223DB00C858FFF7DEF810BD0000A9
:1039D00010B5040000F04EFC2378044AD25C002AA3
:1039E00002D0024A0021D154012010BD580F0020FE
:1039F00030B58FB00723CB56002B08DB8B78022B1A
:103A000034D0092B4BD00B2B40D1012032E0CA8897
:103A1000D205D20DCB795B061B0F5D1C1A246C43BB
:103A2000A242EBD90C7803AA147089785170002156
:103A30005180D47880392143D170C9B20424214304
:103A4000D1700F212940C900D3787824A3430B43B8
:103A5000D370144B9360144BC35C1373134B0093DC
:103A600001230D2102F05AF9012003E00B78002B0D
:103A700002D001200FB030BDCA89FF331340DB08EC
:103A8000072213400A4A83540020F3E700230093DF
:103A900001330022122102F041F90120EAE701205E
:103AA000E8E7C046400F00203C070000193900003D
:103AB0002C0700000301181A80000830014BC018C1
:103AC0007047C046081000200301181A8000014BFF
:103AD000C018704708100020AC2343430148181851
:103AE0007047C0465C0F002070B50024002C02D047
:103AF0000125280070BD084B1B5DDDB2002B08D1ED
:103B00002000FFF7E9FF03789B07F2D40134E4B209
:103B1000ECE70025EDE7C046580F002030B583B034
:103B200004000D000378002925D00978194AD154E2
:103B30006978194AD154697A02F0D2F92900200033
:103B400001F04EFA154BE2583423D35C59424B41F5
:103B5000F121490063543523D35C5A425341E22298
:103B6000FF32A354D323DB00E058D939FF39FFF7E4
:103B7000C7FD002801D003B030BDFA23D322D20004
:103B8000A058074A00925B000A222100FFF77CFC44
:103B9000F1E7C0464C0F0020480F00208C060000C3
:103BA0008D390000012070477047F0B583B00500E3
:103BB0006B460022DA71FFF7F5FF041E02D12000E8
:103BC00003B0F0BD6B46D91D280001F0ABFD002805
:103BD0003AD16B46DC79002CF1D0FCF7DAFD060017
:103BE000FFF782FF041E0AD16B4607331B78002BB8
:103BF00024D1FFF7D9FF3000FCF7CFFDDFE76B469C
:103C0000D91D280001F0B4FD002815D16B46DC79E0
:103C1000002CE9D0D323DB00E858FFF78DFDD22735
:103C2000FF00E8590121FEF7A1FAFDF7DBF9E85999
:103C30000021FEF79BFAD7E70024D5E76B46D91D94
:103C4000280001F0B8FDD4E70024B8E730B583B010
:103C500004000D00012101F0F9FF0221200001F014
:103C6000F5FFD223DB00E0582900FEF7ADFF002866
:103C70000FD1D323DB00E0582378002B14D00B4A5C
:103C80000B4B009301232100FFF7FEFB012003B043
:103C900030BD2378074AAC2159438B5C1020034385
:103CA000DBB28B540020F2E7034AE9E73E04000050
:103CB000C13900005C0F00203E03000010B5D22384
:103CC000DB00C058FEF7AEFF10BD000010B5044B7E
:103CD000C15CD223DB00C058FEF760FF10BDC046B8
:103CE00031020000F8B5CE46474680B5040088464C
:103CF000914605780B4F795DD226F6008059FEF784
:103D0000DDFE795DA0594B464246FEF7F4FE030006
:103D1000054A525D795DA059FEF71EFEC0BCB9464A
:103D2000B046F8BD4C0F0020480F002010B5D2233C
:103D3000DB00C058FFF742F810BD10B5D223DB00FE
:103D4000C058FFF745F810BD10B50378044AD25C9F
:103D50000449C95CD223DB00C058FEF7E5FE10BD64
:103D6000480F00204C0F002070470000F0B5C646F9
:103D700000B58EB005000C00160003789846152992
:103D80000ED9392900D912E1162935D32300163B63
:103D9000DAB2232A00D9FCE093008B4AD3589F461D
:103DA000002927D001228A40884B1340591E8B419D
:103DB000DFB2002B3DD190239B031A4204D11205A0
:103DC000D70F002A00DBE5E07423EB5CD323DB0094
:103DD000E8584346002B2ED08421C900FFF735FC5C
:103DE000002F03D07A4B002241465A54012C25D093
:103DF0000027CFE00027CDE00027CBE08C239B00FD
:103E0000EA5C744B41465B5C9A420AD18C239B006E
:103E1000EA5C704B41465A546D4B00225A540027BD
:103E2000B8E0404600F0DCF9F0E70027CCE70027D7
:103E3000CCE70027CAE7C8218900CFE7280000F0B7
:103E40005DF9071E00D0B4E04046FFF745FE037859
:103E50005BB2002B00DA9DE098230022EA5499E03F
:103E60005D4BEB5C012B3ED95C4BAC2241464A4397
:103E70009B1801225A70DA70D323DB00E8582B78A4
:103E8000002B39D08421C900FFF7DFFB504B42469D
:103E90009F5C002F00D08EE04F4BEB5C012B79D95B
:103EA0008B239B00EB5C002B74D18933FF33EB58E1
:103EB0009B7A5BB2002B6DDA494BEB5C012B69D12D
:103EC000D323DB00E8582B78002B18D08422D200B3
:103ED000444B009364232900FFF7D6FA3C4B0122A0
:103EE00041465A5456E03D4BAC2241464A439B184A
:103EF00000225A70DA70BFE7C8218900C4E7C822DF
:103F00009200E5E731002800FFF772FD070041E06D
:103F10007378012B01D000273CE0B26893010CD5E7
:103F200013021B0F1203120F12011343DBB22E4AAE
:103F3000414689000020885010E00023009301339F
:103F400000220F21280001F0E9FE002722E0264987
:103F5000424690004258013242505B08002B01D08B
:103F6000DA07F4D503AA00211170012353801F4BF7
:103F7000EB5C13730423537043469B001A481B18D1
:103F80009360009101230D31280001F0C7FE002746
:103F900000E0002732002100280000F02DF9002861
:103FA00001D1002F09D00EB080BCB846F0BD00276B
:103FB000F0E70027EEE70027ECE7320021002800B9
:103FC000FFF7D2FEEFE7C04688A800000A04000011
:103FD000500F0020540F0020260200005C0F00202C
:103FE00005070000413900003C0F00203C0700009D
:103FF00030B583B004000578C82100228900FFF79E
:1040000071FE002816D0104AAC2169438B5C082051
:104010000343DBB28B546423D322D200A05822780E
:10402000002A0FD0094A0A4900912100FFF72CFA13
:1040300003B030BDD223DB00E058FDF7D9FFFA23EF
:104040005B00E9E7034AEEE75C0F00200F04000085
:10405000594000000F03000030B583B00C000D780C
:10406000C821002289002000FFF73CFE00280ED066
:104070006423D322D200A0582278002A34D01B4ACD
:104080001B4900912100FFF7FFF903B030BD280064
:10409000FFF722FD03781B070ED5164BAC226A43AF
:1040A000D15C08208143D154D223DB00E058FDF7D6
:1040B0009FFFFA235B00DCE70E4BAC226A43D15C26
:1040C0007F200140D15498230022E254D225ED00F4
:1040D00060590021FDF7C8FF60590121FDF7C4FFB9
:1040E000200001F0FBFAD0E7034AC9E70F04000003
:1040F000594000005C0F00200F03000010B500784D
:104100000022082A0BD8084BC10009185B189C5CD8
:10411000064B5B189B5C9C4203D80132F1E7002000
:1041200010BD0120FCE7C0464410002050100020C4
:1041300010B504788522920083189B7A002B03D057
:1041400083181B7E002B07D1054AAC2161438B5C91
:1041500002242343DBB28B5401F083FD10BDC04623
:104160005C0F002030B583B00400D223DB00C358BD
:104170001B78052902D098220120A054164AD800A5
:10418000C0181218555CFF2D07D0144AD800C0186B
:104190001218505C0130C0B25054104AD800C318F5
:1041A000D218535CAB4211D80023BB22D200A354D7
:1041B000009300220521200001F0B0FD002808D066
:1041C00000220421200001F067FE02E02000FFF73A
:1041D000AFFF03B030BDC046501000204410002097
:1041E00010B5C3001818034BC0180922002106F0AF
:1041F000B9F910BD4410002070B505000C00067818
:104200001A2915D88B000F4AD3589F46FFF776FF1F
:1042100000280DD10C4BAC227243D35C5BB2002B57
:1042200002DB98230022EA54032C03D01A2C01D07D
:10423000002070BD3000FFF7D3FFF9E70021FFF742
:1042400091FFF5E718A900005C0F0020D223DB00E6
:10425000C258E2235B00D35801781B68002B04D0BE
:104260001879034BCA005218D05401207047C04639
:104270005010002070B5040005782800FFF72CFCD2
:1042800003789B0700D470BD094A0321200001F088
:1042900003FE0F28F7D0074BAC226A43D15C022003
:1042A0008143D154D15C82380143C9B2D154EAE789
:1042B000F13F00005C0F0020F0B583B004000091D6
:1042C00017000193D223DB00C258E2235B00D358CE
:1042D0001E683378002B01D103B0F0BDFCF759FA0A
:1042E00005007378002B03D12800FCF756FAF3E79A
:1042F000D223DB00E0583B00019A0099FEF710FE44
:10430000F2E710B5D223DB00C058E2235B00C358AC
:104310001B681A78002A02D05B78002B00D110BDF0
:10432000FEF7A6FEFBE710B54843F430FF30FA2154
:10433000490005F08DFF10BD10B543011B1A9B000D
:10434000181880004018013805F082FF10BD0000E9
:10435000F8B505000678447A01200440AF7A384069
:104360004006240601271740BF0604433C430729A3
:1043700002D9802000060443072008400007314F7F
:104380003C400443481E01318900069FBC466144FD
:10439000C9788909032922D0002A00D000230122EC
:1043A0001340DB06284A14401C43284BB600F35840
:1043B0009B05990D1B0B264A14401C43254BF358B3
:1043C0009B05980D0300A20A920213431C001201E0
:1043D0000ED481420CD99C0AA4020C4308E002309E
:1043E0008000069B1B18DB789B069B0F012B14D0CB
:1043F00085239B00EB189B7C012B0CD980231B048D
:104400001C43154B9C4665442A78012313409B05A9
:10441000124A14401C432000F8BD114BB600F1585D
:104420004B05DB0A0F4A14401C430F4BF358642022
:10443000584305F00DFF7F2303407F2294431C4324
:10444000D6E7C046FFFFFF8FFFFFFFF76010002099
:10445000FF03F0FF6C10002005070000FFFFBFFF07
:1044600064100020FF01E0FF68100020F0B5DE4678
:1044700057464E464546E0B583B004000E00150091
:104480000378994613004E339B00C318DB799B09D0
:104490009846130074335B00C3189F88BF05BF0D97
:1044A000C64B4A4692000021D150F3789B09022B5B
:1044B00000D13EE158D8002B68D0012B52D173882F
:1044C0009B049B0D9A4633681B03990D33889B050B
:1044D0009B0DBA4A4846800083504346012B00D1C9
:1044E000FEE0022B00D034E22B004E339B00E31899
:1044F0005B681B039B0D994200D22CE22B004E33CC
:104500009B00E318DB889B049B0D9A4500D924E2AD
:104510004E35AB00E31899888905890D5046FFF7A1
:1045200002FF040039005046FFF7FDFE070022009D
:10453000844200D2020033889B059B0D934200D237
:104540000DE29F4B4A469200D4509E4A4B469B0038
:10455000514699509C4A9F50994A99589B4A995064
:1045600001200AE0002008E0032B0DD1F27830236F
:104570001340102B00D160E1002003B0F0BCBB461B
:10458000B246A946A046F0BD0020F6E733681B03FB
:104590009B0D9A46019331888905890D1800FFF714
:1045A000C2FE864B4A469200985014215046FEF7B0
:1045B000D3FD53461B1A9B4650444346012B5BD008
:1045C000022B30D0002B00D0B3E12B004E339B00E8
:1045D000E3185B681B039B0D9A4501D00020CCE7D4
:1045E0004E35AB00E3189B889B059B0D1900BB4221
:1045F00000D2390032889205920D8A4200D29AE1A7
:104600006F4A494689008B506E4B4A469400019888
:10461000E0506B4BE158FFF786FE6C4B18516A4B2C
:10462000E7500120A9E72B004E339B00E3185B689D
:104630001B039B0D5B4500D97FE12B004E339B0094
:10464000E318DB889B049B0D834200D277E14E3553
:10465000AB00E3189B889B059B0D1900BB4200D261
:10466000390032889205920D8A4200D269E1544A9B
:10467000494689008B50C7E72B004E339B00E31857
:104680005B681B039B0D5B4500D95CE12B004E333F
:104690009B00E318DB889B049B0D834200D254E10E
:1046A0004E35AB00E31898888005800D5946FFF71A
:1046B00043FE040059463800FFF73EFE0700220083
:1046C000844200D2020033889B059B0D934200D2A6
:1046D0003DE13B4B4A469200D4505B46019393E741
:1046E0002B004E339B00E3185B681B039B0D994224
:1046F00000D236E12B004E339B00E318DB889B048D
:104700009B0D9A4500D92EE14E35AB00E3189B88EE
:104710009B059B0D1900BB4200D2390032889205DF
:10472000920D8A4200D220E1254A494689008B50E9
:104730000BE773889B049B0D9A46316809038B0D28
:104740009B464346012B43D0022B00D00FE12B00A8
:104750004E339B00C3185B681B039B0D9B4500D227
:1047600007E12B004E339B00C318DB889B049B0D95
:104770009A4500D9FFE04E35AB00C3189C88A405CC
:10478000A40D2200BC4200D23A0033889B059B0D49
:10479000934200D2F1E021005846FFF7C4FD0B4BD5
:1047A0004A4692009850064BD450064B4A46920017
:1047B0005146D150044BD7500120DEE65C1000205A
:1047C00060100020641000206C1000206810002091
:1047D0002B004E339B00C3185B681B039B0D9B454E
:1047E00000D2CCE02B004E339B00C318DB889B0427
:1047F0009B0D9A4500D9C4E04E35AB00C3189C8888
:10480000A405A40D59462000FFF796FD0500594662
:104810003800FFF791FD07002A00854200D2020010
:1048200033889B059B0D934200D2ACE05E4B4A4619
:104830009200D4505D4BD550B7E7062D00D8A4E0C8
:1048400073889B05DB0D5B0072785200414600299E
:1048500003D0032936D000208FE629004E3189008D
:10486000411849680903890D8846914200D28EE0BB
:10487000994200D98DE04E35AB00C318998889055F
:10488000890D4046FFF74FFD040039004046FFF711
:104890004AFD2200844200D2020033789B009342FA
:1048A00079D3424B4A469200D450414B4146D150B5
:1048B000404A4B469B0098503C4A99583A4A995076
:1048C00001205AE629004E3189004118C87930216B
:1048D0000140102901D000204FE629004E31890007
:1048E000611849794900914257D32A004E3292000B
:1048F000A218D2889205D20D520090469A424ED804
:1049000039001000FFF70FFD4E35AD006419237913
:104910009B001900834200D20100327892008A4243
:104920003FD3224A494689008B50214B4246CA5008
:10493000BEE7002021E600201FE600201DE6002043
:104940001BE6002019E6002017E6002015E60020EF
:1049500013E6002011E600200FE600200DE60020FF
:104960000BE6002009E6002007E6002005E600200F
:1049700003E6002001E60020FFE50020FDE5002021
:10498000FBE50020F9E50020F7E50020F5E5002033
:10499000F3E50020F1E50020EFE50020EDE5002043
:1049A000EBE50020E9E5C04668100020601000201B
:1049B000641000206C100020F0B5DE4657464E46CD
:1049C0004546E0B58BB006000F00069205780B89CE
:1049D0009B059B0D07934B789B467C23C35C9946B4
:1049E00000230F2206A98C46624413700E226244F3
:1049F00013700523FB56002B09DB0023039302935E
:104A00009A464B460593A8463D005F4697E0FB88D3
:104A1000DB055B0E9B46DC23DB00C3181B78002BF9
:104A2000EBD0110001F04AF95B46072B0CD90E239D
:104A300006AA944663441B78002B05D1624BF318F9
:104A40001B780733DBB299460021300001F02AF9C8
:104A5000D3E75B4674335B00F3189B88DB0B611C68
:104A6000C9B2009700223000FFF772FC0490039552
:104A70004B4602930F2506AB9C4665442900300047
:104A800001F002F92B78002B03D00523FB56002BF5
:104A900031DB4046FFF70EF8002303710134E4B226
:104AA000A24546D9062C06D9A31C9B00FB18DB782F
:104AB0009B09012BF2D0A11C890079185A463000BD
:104AC000FFF7D4FC051ED5D0404B42469200D35888
:104AD0009946029B4B45CDD833003D33FF33DB78FD
:104AE000DB06B6D53A4B42469200D358642BB0D180
:104AF0004B460293D2E7062CCBD8364B4246920067
:104B0000D258C8235B009A42C3D945462800FEF715
:104B1000D1FF012303712800FEF7CCFF0100300014
:104B2000069B98470BB0F0BCBB46B246A946A046D0
:104B3000F0BD3D0057465B460133DBB29A46059B0C
:104B4000534504D90024D346BA462F00A8E72F00C6
:104B50004546039B002B2AD19E21490073581B0315
:104B60009B0D1B4AA80080468350745AA405A40DCF
:104B7000194A84506343F433FF331800FA21490083
:104B800005F066FB114B4246985007998C4201D9BB
:104B9000114BD150EC23F15A104BAA00D150009781
:104BA0000023012201213000FFF7D2FB04902800EE
:104BB000FEF780FF049B03603078FEF77BFF010067
:104BC0003000069B9847ADE7E5060000681000201E
:104BD000641000205C100020601000206C10002089
:104BE00070B50C00D225ED0048590021FEF75EF8A3
:104BF00060590021FEF7B4F870BD10B5D223DB0078
:104C0000C8580121FEF772F810BD000070B582B0DF
:104C100005000C000878FEF757FF06002378002BEC
:104C200005D0FF221540C022920094466544C2225E
:104C3000920095421CD0204B9D4226D100221F4954
:104C40002000FFF74FF8002826D1D323DB00E058DF
:104C50002378002B1DD08121C900FEF7F6FCD2235A
:104C6000DB00E058FEF7B4F87368200098470CE0CA
:104C7000D322D200A058002B09D01149FEF7E5FC41
:104C8000D223DB00E058FEF7A3F802B070BD0A495A
:104C9000F4E7C2218900E0E7D323DB00E058237862
:104CA000002B00D0064D074B009301232A00210062
:104CB000FEF7EAFBE9E7C04609030000881300009D
:104CC000090400000D4C00007047704730B583B0F8
:104CD0000400D323DB00C0582378002B1ED01249D8
:104CE000FEF7B3FCD225ED0060590021FDF7FEFF71
:104CF00060590121FDF7DAFFD323DB00E058237868
:104D0000002B0ED0094A0A4B009301232100FEF725
:104D1000BBFB2000FFF7D8FF03B030BDCF218900D7
:104D2000DEE7044AEFE7C0463C0400003D04000013
:104D3000E14B00003D03000010B5007801F0DAF807
:104D40000400FFF7C3FF8022D205A823E25000220F
:104D500017212000FFF70AF8002010BD10B582B01F
:104D60000400D223DB00C0580021FDF7D3FFD3237A
:104D7000DB00E0582378002B0BD0074A074B009349
:104D800005232100FEF780FB2000FFF79EFF02B005
:104D900010BDCF229200F1E73C040000FB4B000065
:104DA00070B504000D000078FEF78EFE8582D223D8
:104DB000DB00E058FEF70CF8034B0022290020002E
:104DC000FFF77AFA70BDC046394D000070B5050096
:104DD0000C000078FEF778FEC482322C00D970BD3A
:104DE00000222A212800FEF7C1FFF8E770B5040071
:104DF000FBF7CFFC0500D223DB00E058FDF7E8FF0E
:104E000087239B00E35C002B08D09823E35C002BF6
:104E100004D12378074AD25C002A03D02800FBF78C
:104E2000BCFC70BD034A0121D1542000FFF796FF5E
:104E3000F4E7C04670100020F0B5C64600B582B059
:104E400004000E0007783800FEF73EFE0500FBF771
:104E5000A0FC804600212000FFF753FA2000FFF756
:104E600035FF284B0022DA55D223DB00E058FDF74E
:104E7000AFFFD323DB00E0582378002B16D081212D
:104E8000C900002B15D0204AFEF7F4FB002E04D0F9
:104E900087239B00E35C002B0DD11C4BAB8240466B
:104EA000FBF77BFC02B080BCB846F0BDC221890094
:104EB000E7E7174AE8E7D223DB00E058FDF77EFF7B
:104EC0006E60D323DB00E0582378002B15D08122BD
:104ED000D200104B0093FA232100FEF7D5FAD3231A
:104EE000DB00E0582378002B0AD00B4A094B0093D3
:104EF00001232100FEF7C8FACFE7C2229200E8E7BB
:104F0000064AF3E7701000200A040000881300002E
:104F10000A0300000D4C0000090400000903000012
:104F2000022910D0032903D000290ED103200BE061
:104F300085239B009C466044837C012B01D9102073
:104F400002E0042000E00C2070470420FCE7000091
:104F500070B504000D00094BC35C03211940FFF735
:104F6000DFFF06002078FEF7A5FD06712078FEF72A
:104F7000A1FD01002000A84770BDC0460E02000040
:104F800070B504000D00094BC35C012B0BD9102632
:104F90002078FEF78FFD06712078FEF78BFD01006B
:104FA0002000A84770BD0426F2E7C0462602000094
:104FB00070B504000D00094BC35C012B0BD9102602
:104FC0002078FEF777FD06712078FEF773FD01006B
:104FD0002000A84770BD0426F2E7C0462602000064
:104FE00070B505000E000078FEF776FD04007368CA
:104FF000002B02D0337A042B0CD80023237100231A
:105000006371A371094BEA5812892284EB585B89BA
:10501000638570BD043B9B1003717168C1601C30D7
:10502000FF221A40920005F0C9FAE8E78C0600005A
:10503000F8B5CE46474680B504000D00160000784E
:10504000FEF74AFD0100674BE35C012B11D90122F9
:10505000A9230020C8542B89634803408020000204
:10506000834208D0002A00D0B7E0A9230232CA54F4
:1050700046E00022ECE7A8688C23C8504F786B7A92
:105080005B06980F8446381C674500D96046C3B25A
:1050900099464870C8786B7ADB069F0FB846071CA4
:1050A0004346404500D91F1CF8B28446CF70A82360
:1050B0000120C8541C3B9846CB5C3E3018408023EE
:1050C0005B42034340460B54484BE35C002B01D04A
:1050D000002A69D06B78012B19D003220B008C3386
:1050E0004F4617407F0158786025A84338435870D1
:1050F00060460240D2005878483DA84302435A70A7
:105100008C312000B047C0BCB946B046F8BD2B7A00
:10511000DB06DB0E012B05D0062BDED1A9230122F5
:10512000CA54DAE708796A89FF231B029A42D4D16C
:105130000028D2D0A823C8548C3B9846884400232A
:1051400009E09D001A00223292008A1847467D59D4
:1051500055600133DBB28342F3D34B46002B16D1AB
:105160009033CB58224A1340224A13401D0E382256
:105170002A40182A13D01D0E38222A40282A11D07E
:105180000422824201D2A8200A5490228B508C2201
:10519000885C3F230340402003438B549DE7164A1D
:1051A0001340E8E70522ECE72A7A1F231340062B79
:1051B0000FD02B7ADB06DB0E052B00D88DE76A8932
:1051C000FF231B029A4200D087E7A9230122CA5479
:1051D00083E7A3330122CA547FE7A9230322CA54D9
:1051E0008EE7C04626020000C080FFFF25020000B7
:1051F000FFFF7FFCFFFF9FFFFFFFFFC7BFF34F8F46
:10520000034B044ADA60BFF34F8FC046FDE7C04648
:1052100000ED00E00400FA0500B583B00B4B1A68FE
:1052200001321A601B68022B0AD8094B1868094B17
:105230000093094B01220021FEF726F903B000BDBF
:10524000064B1B68064A5A60FFF7D8FF781000200B
:105250007410002019520000EE020000EC00002043
:105260000C3003C010B51B4B18601B4B1B68196832
:105270001A4A914211D01A4B1B68002B27D00221E9
:10528000002098470024144B1A68144911601B68C9
:1052900000225A605A609C6010BD9C685968114A8F
:1052A00091420BD05A68104B9A42ECD10C4B1B68C0
:1052B000002BE8D0012100209847E4E7084B1B6849
:1052C000002B02D00021002098470134DBE70024A6
:1052D000D9E7C04674100020EC000020EFBEADDE20
:1052E0007C1000200C3003C00C3003D000B583B01C
:1052F000064B1868064B0093064B01220021FEF76F
:10530000C3F8054B00229A6303B000BD741000205F
:1053100019520000EE02000000000340014B002281
:105320001A6070477810002010B5034B1B68034AC1
:105330005A60FFF763FFC046EC0000200C3003D03A
:10534000002801D0014B18607047C0467C10002037
:1053500004307047F7B50400150002260898002CA9
:1053600000D187E1002900D184E1002A00D181E148
:10537000002B00D17EE1002800D17BE1E7260A78EE
:10538000F6002270C14A0027A251C14AA5508D22C1
:105390009200A350D223DB00E150BE4B099AE050AB
:1053A0000433E2508422BC4B3900E7509200201DA8
:1053B00005F0D8F8D423DB00E6189022390030003D
:1053C00005F0D0F8B54B0E223900E01805F0CAF808
:1053D0008E23AC229B0039005200E01805F0C2F881
:1053E000E423BB229B0039009200E01805F0BAF8D4
:1053F00023002200BC33C0321A601E22A84BE254A4
:10540000297CB94200D137E130002A7E696905F074
:10541000D5F8A44B697CE018002900D131E16B1C60
:10542000DA7FE96905F0CAF8DC230022DB00E31823
:105430001A709D4BE3181A702B008C3301931A7865
:10544000131C062A00D906239849DAB261180B709A
:105450002900974B9200E018903105F0AFF82B002F
:105460008D331A78934BE3181A702B008E331A7809
:10547000131C062A00D906238F4ADFB2A218137024
:10548000E1232900DB00BA00A831E01805F096F806
:10549000E4232900DB007A00E018C03105F08EF823
:1054A0002B008F331A78854BE3181A702B008E333C
:1054B0001B785A1E9341824AA2181370019B1B78D5
:1054C0005A1E93417F4AA21813702B0088331B6821
:1054D0000122B3637C4BF363ED235B00E2546B1D4D
:1054E000DB7FAA1D2371D27F022B00D01A006271CC
:1054F000EB1DDB7FA3712B000833DA7FE423FF333E
:10550000E2542B0028331A7823006A331A702B00D8
:1055100029331A7823006B331A702B003B33197828
:105520007F220800113B1B78904313402200034365
:105530006C3213702A002B32107822005B066D3219
:10554000DB0F1070A3722B002C331B785A1E934173
:1055500085229200A21813732B002D331B78E3735E
:105560002B002E331B78581E834123742B002F33BE
:105570001B7863742B0030331B7823752B00313379
:105580001B78581E834193732B0032331B78200005
:10559000A3742B0034331B7824305A425341F12238
:1055A0005200A3542B0035331B785A425341E22258
:1055B000FF32A3542B0036331B78A3752B003733EF
:1055C0001B7863752B0038331A780133E2721B782D
:1055D000920023732B003A331E78A173290066735F
:1055E0003C3104F0EBFF29002000B200583140307C
:1055F00004F0E4FF29002000720074315C3004F0F4
:10560000DDFFF223AA795B00E25429890833E152D5
:1056100069890233E152042A08D9E968002905D0D2
:105620002000F130043AFF3004F0C8FF33352B7806
:105630002000013B5A425341C822E374234B92009D
:10564000E2520023153AFF3AA352214AA35403F031
:10565000A9FC061E0ED1200001F048FB2300012208
:1056600084331A70EA231B4A5B00E25022781A4BFB
:105670009200D4503000FEBD1922300004F072FFB9
:10568000C7E6182204F06EFFCEE6C04692A90000DD
:105690008C060000940600009C0600007C060000BA
:1056A0003C070000BC060000E2060000EB0600001C
:1056B000EC060000EA0600000707000006070000ED
:1056C00005070000E9060000000010323E07000058
:1056D000110200000789341480100020030010B567
:1056E0000220002B1AD0832189005A5A002A01D0A7
:1056F000013A5A520A4A0C209A5830321278002A3B
:105700000CD15A5A002A09D1190085310A70872212
:10571000012192001800995403F058FC10BDC046B6
:105720008C06000073B500236A4605000E000224B3
:10573000D37198420BD0994209D00B7085239B00FE
:10574000C3181B7A002B04D10123002433702000DE
:1057500076BDD11D03F080FC041EF8D16B46DB79C9
:10576000002BF4D1280001F00BFB0028ECD0EEE771
:1057700073B56B46DC1D002306000D00022023706C
:105780009E4215D0994213D021003000FFF7CAFF86
:1057900000280ED12378002B08D087239B00F35CD0
:1057A000002B03D02100300003F0A6FC23782B70DF
:1057B00076BD0C20FCE713B500236A460C00D371BC
:1057C0000233002808D0002906D0D11D03F0ADFC1B
:1057D0006A460300D2792270180016BD70B5050024
:1057E000022400280AD087239B00C45C002C07D029
:1057F00003F0E6FD280002F00FFF0024200070BD3A
:10580000030085331A78002AF8D01C7003F0A2FD3B
:105810000400280001F0ABFAF0E70000F0B5664B99
:105820008BB0C3580400DB88009385239B00C3180A
:105830001B7E002B02D1F533FF3300932000E37A67
:1058400009301C220021FF30099304F08BFE009BDD
:1058500000275B000893230024330193009B0497E7
:105860009B059B0D0397079385239B00E318987C6A
:10587000039A099B934227D82100FC314F4ACB68F9
:10588000C025134022006A321278AD051205134379
:1058900022006B32127812072A401343012800D8E5
:1058A00086E0474A13402200CB600123FF32117B80
:1058B0000B4313732300049A7B331A70B623012021
:1058C000FF33E7540BB0F0BD039A237BD340012292
:1058D000134250D0019B1E681D8833039B0D029319
:1058E000019BAD059B78AD0D9B069B0F0593019B1E
:1058F000DB789A069B09920F0693012804D83F2172
:10590000330E8B43C02B36D0069B032B22D81800B6
:1059100004F080FC02384940009B9D4204DD069B58
:10592000079D0593012715E0264A029B16409B021E
:105930001E43254A059B16401B051E43002B09D01C
:105940006E206421684304F083FC009B834201D2F3
:10595000069B0593029B059A9B022B431205B60DED
:105960001343B6051E43049B40339B00E3189E601F
:10597000049B01330493039B01330393019B043382
:10598000019371E7089B029A53439D42E2D99B051C
:105990009D0DC7E7002ADDD0029B009A934202DDED
:1059A0000127079B0293009BAB42D3DA079DB9E71F
:1059B000064A1340CB607DE794060000FFFF0FC04E
:1059C000FFFFBFFFFF03F0FFFFFFCFFFFFFF3FFE23
:1059D000F7B50400437B3D301C220021FF300193CA
:1059E00004F0C0FD00228521260027001300890055
:1059F000601840365C37817C8C46019999421FD8EB
:105A00002000FC30036C2049C0250B4021006C3184
:105A10000978AD050905194323006D331B781B0771
:105A20002B400B4303646346012B05D8611CFF31F7
:105A3000CB8F16480340CB877C3401202270FEBDFB
:105A4000A17B0125D94029421BD06146A94207D834
:105A500019000E3189006118C97A8909032910D00B
:105A600011009D004E317559890061184D60590033
:105A7000795A8C46110065467431490061188D8051
:105A800001320133B7E7C046FFFF0FC07FFEFFFFC3
:105A9000324BF7B5C51800231E0001930200002108
:105AA0002532B300FF32D1502D4B0122C3181B7891
:105AB0003341134228D029882B6889058A0D9446E2
:105AC0001100AA78EC789206920F00923F22A40966
:105AD0009B00A7079B083B431F0E9743402F13D003
